{
	"_format": "hh-sol-artifact-1",
	"contractName": "WagmiTeamsPortal",
	"sourceName": "contracts/WagmiTeamsPortal.sol",
	"abi": [
		{
			"inputs": [],
			"stateMutability": "payable",
			"type": "constructor"
		},
		{
			"inputs": [
				{
					"internalType": "enum WagmiTeamsPortal.PostionType",
					"name": "",
					"type": "uint8"
				},
				{
					"internalType": "uint256",
					"name": "",
					"type": "uint256"
				}
			],
			"name": "allPositions",
			"outputs": [
				{
					"internalType": "string",
					"name": "title",
					"type": "string"
				},
				{
					"internalType": "string",
					"name": "projectOrCompanyName",
					"type": "string"
				},
				{
					"internalType": "string",
					"name": "projectOrCompanyImageUrl",
					"type": "string"
				},
				{
					"internalType": "string",
					"name": "description",
					"type": "string"
				},
				{
					"internalType": "string",
					"name": "positionOfferUrl",
					"type": "string"
				},
				{
					"internalType": "string",
					"name": "contact",
					"type": "string"
				},
				{
					"internalType": "uint256",
					"name": "createdAt",
					"type": "uint256"
				}
			],
			"stateMutability": "view",
			"type": "function"
		},
		{
			"inputs": [
				{
					"internalType": "enum WagmiTeamsPortal.PostionType",
					"name": "postionType",
					"type": "uint8"
				},
				{
					"internalType": "uint256",
					"name": "_page",
					"type": "uint256"
				},
				{
					"internalType": "uint256",
					"name": "_resultsPerPage",
					"type": "uint256"
				}
			],
			"name": "getPaginatedPositions",
			"outputs": [
				{
					"components": [
						{
							"internalType": "string",
							"name": "title",
							"type": "string"
						},
						{
							"internalType": "string",
							"name": "projectOrCompanyName",
							"type": "string"
						},
						{
							"internalType": "string",
							"name": "projectOrCompanyImageUrl",
							"type": "string"
						},
						{
							"internalType": "string",
							"name": "description",
							"type": "string"
						},
						{
							"internalType": "string",
							"name": "positionOfferUrl",
							"type": "string"
						},
						{
							"internalType": "string",
							"name": "contact",
							"type": "string"
						},
						{
							"internalType": "uint256",
							"name": "createdAt",
							"type": "uint256"
						}
					],
					"internalType": "struct WagmiTeamsPortal.Position[]",
					"name": "positions",
					"type": "tuple[]"
				}
			],
			"stateMutability": "view",
			"type": "function"
		},
		{
			"inputs": [
				{
					"internalType": "enum WagmiTeamsPortal.PostionType",
					"name": "postionType",
					"type": "uint8"
				},
				{
					"components": [
						{
							"internalType": "string",
							"name": "title",
							"type": "string"
						},
						{
							"internalType": "string",
							"name": "projectOrCompanyName",
							"type": "string"
						},
						{
							"internalType": "string",
							"name": "projectOrCompanyImageUrl",
							"type": "string"
						},
						{
							"internalType": "string",
							"name": "description",
							"type": "string"
						},
						{
							"internalType": "string",
							"name": "positionOfferUrl",
							"type": "string"
						},
						{
							"internalType": "string",
							"name": "contact",
							"type": "string"
						},
						{
							"internalType": "uint256",
							"name": "createdAt",
							"type": "uint256"
						}
					],
					"internalType": "struct WagmiTeamsPortal.Position",
					"name": "position",
					"type": "tuple"
				}
			],
			"name": "sendPosition",
			"outputs": [],
			"stateMutability": "payable",
			"type": "function"
		},
		{
			"inputs": [],
			"name": "tipOwner",
			"outputs": [],
			"stateMutability": "payable",
			"type": "function"
		}
	],
	"bytecode": "0x60c0604052601460809081527f496e697469616c697a656420636f6e747261637400000000000000000000000060a05262000046906200005e602090811b620010c017901c565b600080546001600160a01b0319163317905562000125565b620000a981604051602401620000759190620000cd565b60408051601f198184030181529190526020810180516001600160e01b0390811663104c13eb60e21b17909152620000ac16565b50565b80516a636f6e736f6c652e6c6f67602083016000808483855afa5050505050565b600060208083528351808285015260005b81811015620000fc57858101830151858201604001528201620000de565b818111156200010f576000604083870101525b50601f01601f1916929092016040019392505050565b61160780620001356000396000f3fe60806040526004361061003f5760003560e01c80631b078add146100445780632e9de1751461008057806346b842781461009557806383121772146100c2575b600080fd5b34801561005057600080fd5b5061006461005f366004611221565b6100ca565b60405161007797969594939291906113db565b60405180910390f35b61009361008e3660046111cc565b610459565b005b3480156100a157600080fd5b506100b56100b036600461124b565b610929565b60405161007791906112cb565b610093611024565b600160205281600052604060002081815481106100e657600080fd5b90600052602060002090600702016000915091505080600001805461010a90611501565b80601f016020809104026020016040519081016040528092919081815260200182805461013690611501565b80156101835780601f1061015857610100808354040283529160200191610183565b820191906000526020600020905b81548152906001019060200180831161016657829003601f168201915b50505050509080600101805461019890611501565b80601f01602080910402602001604051908101604052809291908181526020018280546101c490611501565b80156102115780601f106101e657610100808354040283529160200191610211565b820191906000526020600020905b8154815290600101906020018083116101f457829003601f168201915b50505050509080600201805461022690611501565b80601f016020809104026020016040519081016040528092919081815260200182805461025290611501565b801561029f5780601f106102745761010080835404028352916020019161029f565b820191906000526020600020905b81548152906001019060200180831161028257829003601f168201915b5050505050908060030180546102b490611501565b80601f01602080910402602001604051908101604052809291908181526020018280546102e090611501565b801561032d5780601f106103025761010080835404028352916020019161032d565b820191906000526020600020905b81548152906001019060200180831161031057829003601f168201915b50505050509080600401805461034290611501565b80601f016020809104026020016040519081016040528092919081815260200182805461036e90611501565b80156103bb5780601f10610390576101008083540402835291602001916103bb565b820191906000526020600020905b81548152906001019060200180831161039e57829003601f168201915b5050505050908060050180546103d090611501565b80601f01602080910402602001604051908101604052809291908181526020018280546103fc90611501565b80156104495780601f1061041e57610100808354040283529160200191610449565b820191906000526020600020905b81548152906001019060200180831161042c57829003601f168201915b5050505050908060060154905087565b60006104658280611465565b9050116104aa5760405162461bcd60e51b815260206004820152600e60248201526d151a5d1b19481c995c5d5a5c995960921b60448201526064015b60405180910390fd5b60006104b96020830183611465565b9050116105085760405162461bcd60e51b815260206004820181905260248201527f50726f6a656374206f7220636f6d70616e79206e616d6520726571756972656460448201526064016104a1565b60006105176060830183611465565b90501161055d5760405162461bcd60e51b815260206004820152601460248201527311195cd8dc9a5c1d1a5bdb881c995c5d5a5c995960621b60448201526064016104a1565b60646105698280611465565b9050106105a95760405162461bcd60e51b815260206004820152600e60248201526d5469746c6520746f6f206c6f6e6760901b60448201526064016104a1565b60646105b86020830183611465565b9050106106075760405162461bcd60e51b815260206004820181905260248201527f50726f6a656374206f7220636f6d70616e79206e616d6520746f6f206c6f6e6760448201526064016104a1565b60b46106166060830183611465565b90501061065c5760405162461bcd60e51b81526020600482015260146024820152734465736372697074696f6e20746f6f206c6f6e6760601b60448201526064016104a1565b6040805160e08101909152600090806106758480611465565b8080601f0160208091040260200160405190810160405280939291908181526020018383808284376000920191909152505050908252506020908101906106be90850185611465565b8080601f0160208091040260200160405190810160405280939291908181526020018383808284376000920191909152505050908252506020016107056040850185611465565b8080601f01602080910402602001604051908101604052809392919081815260200183838082843760009201919091525050509082525060200161074c6060850185611465565b8080601f0160208091040260200160405190810160405280939291908181526020018383808284376000920191909152505050908252506020016107936080850185611465565b8080601f0160208091040260200160405190810160405280939291908181526020018383808284376000920191909152505050908252506020016107da60a0850185611465565b8080601f016020809104026020016040519081016040528093929190818152602001838380828437600092018290525093855250505060c085013560209092019190915290915060019084828111156108355761083561158f565b60018111156108465761084661158f565b815260208082019290925260400160009081208054600181018255908252908290208351805185946007909402909201926108869284929091019061111f565b50602082810151805161089f926001850192019061111f565b50604082015180516108bb91600284019160209091019061111f565b50606082015180516108d791600384019160209091019061111f565b50608082015180516108f391600484019160209091019061111f565b5060a0820151805161090f91600584019160209091019061111f565b5060c082015181600601555050610924611024565b505050565b6060600083116109725760405162461bcd60e51b8152602060048201526014602482015273141859d9481b9d5b58995c881c995c5d5a5c995960621b60448201526064016104a1565b600082116109c25760405162461bcd60e51b815260206004820181905260248201527f526573756c7473207065722070616765206e756d62657220726571756972656460448201526064016104a1565b6000826109cf85826114cb565b6109d991906114ea565b905060006109e785856114cb565b600160008860018111156109fd576109fd61158f565b6001811115610a0e57610a0e61158f565b815260208101919091526040016000205411610a6c578360016000886001811115610a3b57610a3b61158f565b6001811115610a4c57610a4c61158f565b8152602081019190915260400160002054610a679190611557565b610a6e565b835b905060016000876001811115610a8657610a8661158f565b6001811115610a9757610a9761158f565b81526020810191909152604001600020541580610af557506001806000886001811115610ac657610ac661158f565b6001811115610ad757610ad761158f565b8152602081019190915260400160002054610af291906114ea565b82115b15610b6d576040805160008082526020820190925290610b63565b610b506040518060e00160405280606081526020016060815260200160608152602001606081526020016060815260200160608152602001600081525090565b815260200190600190039081610b105790505b509250505061101d565b60008167ffffffffffffffff811115610b8857610b886115bb565b604051908082528060200260200182016040528015610bf957816020015b610be66040518060e00160405280606081526020016060815260200160608152602001606081526020016060815260200160608152602001600081525090565b815260200190600190039081610ba65790505b50905060005b828110156110175760016000896001811115610c1d57610c1d61158f565b6001811115610c2e57610c2e61158f565b81526020019081526020016000208185610c4891906114b3565b81548110610c5857610c586115a5565b90600052602060002090600702016040518060e0016040529081600082018054610c8190611501565b80601f0160208091040260200160405190810160405280929190818152602001828054610cad90611501565b8015610cfa5780601f10610ccf57610100808354040283529160200191610cfa565b820191906000526020600020905b815481529060010190602001808311610cdd57829003601f168201915b50505050508152602001600182018054610d1390611501565b80601f0160208091040260200160405190810160405280929190818152602001828054610d3f90611501565b8015610d8c5780601f10610d6157610100808354040283529160200191610d8c565b820191906000526020600020905b815481529060010190602001808311610d6f57829003601f168201915b50505050508152602001600282018054610da590611501565b80601f0160208091040260200160405190810160405280929190818152602001828054610dd190611501565b8015610e1e5780601f10610df357610100808354040283529160200191610e1e565b820191906000526020600020905b815481529060010190602001808311610e0157829003601f168201915b50505050508152602001600382018054610e3790611501565b80601f0160208091040260200160405190810160405280929190818152602001828054610e6390611501565b8015610eb05780601f10610e8557610100808354040283529160200191610eb0565b820191906000526020600020905b815481529060010190602001808311610e9357829003601f168201915b50505050508152602001600482018054610ec990611501565b80601f0160208091040260200160405190810160405280929190818152602001828054610ef590611501565b8015610f425780601f10610f1757610100808354040283529160200191610f42565b820191906000526020600020905b815481529060010190602001808311610f2557829003601f168201915b50505050508152602001600582018054610f5b90611501565b80601f0160208091040260200160405190810160405280929190818152602001828054610f8790611501565b8015610fd45780601f10610fa957610100808354040283529160200191610fd4565b820191906000526020600020905b815481529060010190602001808311610fb757829003601f168201915b50505050508152602001600682015481525050828281518110610ff957610ff96115a5565b6020026020010181905250808061100f9061153c565b915050610bff565b50925050505b9392505050565b600080546040516001600160a01b039091169034908381818185875af1925050503d8060008114611071576040519150601f19603f3d011682016040523d82523d6000602084013e611076565b606091505b50509050806110bd5760405162461bcd60e51b81526020600482015260136024820152722330b4b632b2103a37903a34b81037bbb732b960691b60448201526064016104a1565b50565b6110bd816040516024016110d491906113c8565b60408051601f198184030181529190526020810180516001600160e01b031663104c13eb60e21b17905280516a636f6e736f6c652e6c6f67602083016000808483855afa5050505050565b82805461112b90611501565b90600052602060002090601f01602090048101928261114d5760008555611193565b82601f1061116657805160ff1916838001178555611193565b82800160010185558215611193579182015b82811115611193578251825591602001919060010190611178565b5061119f9291506111a3565b5090565b5b8082111561119f57600081556001016111a4565b8035600281106111c757600080fd5b919050565b600080604083850312156111df57600080fd5b6111e8836111b8565b9150602083013567ffffffffffffffff81111561120457600080fd5b830160e0818603121561121657600080fd5b809150509250929050565b6000806040838503121561123457600080fd5b61123d836111b8565b946020939093013593505050565b60008060006060848603121561126057600080fd5b611269846111b8565b95602085013595506040909401359392505050565b6000815180845260005b818110156112a457602081850181015186830182015201611288565b818111156112b6576000602083870101525b50601f01601f19169290920160200192915050565b60006020808301818452808551808352604092508286019150828160051b87010184880160005b838110156113ba57603f19898403018552815160e081518186526113188287018261127e565b915050888201518582038a870152611330828261127e565b9150508782015185820389870152611348828261127e565b91505060608083015186830382880152611362838261127e565b925050506080808301518683038288015261137d838261127e565b9250505060a08083015186830382880152611398838261127e565b60c09485015197909401969096525050948701949250908601906001016112f2565b509098975050505050505050565b60208152600061101d602083018461127e565b60e0815260006113ee60e083018a61127e565b8281036020840152611400818a61127e565b90508281036040840152611414818961127e565b90508281036060840152611428818861127e565b9050828103608084015261143c818761127e565b905082810360a0840152611450818661127e565b9150508260c083015298975050505050505050565b6000808335601e1984360301811261147c57600080fd5b83018035915067ffffffffffffffff82111561149757600080fd5b6020019150368190038213156114ac57600080fd5b9250929050565b600082198211156114c6576114c6611579565b500190565b60008160001904831182151516156114e5576114e5611579565b500290565b6000828210156114fc576114fc611579565b500390565b600181811c9082168061151557607f821691505b6020821081141561153657634e487b7160e01b600052602260045260246000fd5b50919050565b600060001982141561155057611550611579565b5060010190565b60008261157457634e487b7160e01b600052601260045260246000fd5b500690565b634e487b7160e01b600052601160045260246000fd5b634e487b7160e01b600052602160045260246000fd5b634e487b7160e01b600052603260045260246000fd5b634e487b7160e01b600052604160045260246000fdfea26469706673582212206700a892f038d77d4402ee4b338b30b397c2983e9c33e1b50ce925f393d209a364736f6c63430008070033",
	"linkReferences": {},
	"deployedLinkReferences": {}
}